:04000000BAEF04F05F
:1000080000C018F001C017F00CC016F00DC015F0B4
:10001800F2A219D0340E0C6EF10E0D6E0D2EFED715
:100028000C2EFCD70000000081A00CD02D50000A37
:1000380009E14050000A03E1010E406E01D0406A18
:10004800010E196EF292F0A036D0340E0C6EF10E3D
:100058000D6E0D2EFED70C2EFCD70000000081A2DD
:1000680029D02D50000A26E14050000A11E1010E66
:100078002D6E3C0E0001986F000E996F9F6B820EDB
:10008800D56E3C0ED76EB00ED66EF294F28A10D0B2
:100098000001020E2D6E0A0EA16F000EA26F9E6B5C
:1000A800310ECD6E0B0ECF6EDC0ECE6E9E909D8007
:1000B800010E2E6EF090F2A42DD03C0ED76EB00E2D
:1000C800D66EF2942D50010A25E100019F2B050EF2
:1000D8009F5D20E39F6B000E006E9951005C02E16A
:1000E800985100080CE2010E985D006E000E9959B7
:1000F800016E00C098F001C099F0010E6D6F000EFE
:10010800991902E1000E981905E1D59EF29A2D6A17
:10011800010E6C6F9EA02DD00B0ECF6EDC0ECE6E36
:100128009E902D50020A25E100019E2B040E9E5D33
:1001380020E39E6B000E006EA251005C02E1A1510B
:1001480000080CE2010EA15D006E000EA259016EBE
:1001580000C0A1F001C0A2F0010E6D6F000EA2193F
:1001680002E1000EA11905E1CD909D902D6A010EC6
:100178006C6F18C000F017C001F016C00CF015C065
:040188000DF0110065
:0A018C00210E0D6E0D2EFED712009D
:100196000F0E0C6E470E0D6E0D2EFED70C2EFCD7D5
:0601A60000000000120041
:0601AC000000000012003B
:1001B2000001B2BF02D0819E01D0818EB2BD02D0B9
:1001C200819C01D0818CB2BB02D0819A01D0818AFC
:1001D200B2B902D0819801D08188A0B102D08184C5
:1001E20001D081948186E1DF8196B2B702D0819EEF
:1001F20001D0818EB2B502D0819C01D0818CB2B384
:1002020002D0819A01D0818AB2B102D0819801D004
:100212008188A0B102D0818401D081948186C5DF1A
:0E0222008196A0A102D0B6DF01D0AFDF12009E
:0C0230000E0E0D6E0D2EFED70000120009
:0E023C000001A091B1C0B2F0B6DFA0811200A7
:10024A00830EC216ACC000F0003600900036009053
:10025A000050C212E8DFC282C2A201D0FDD7C4CFC9
:0E026A0001F0006AC3500012000E01121200D3
:10027800086A096A100E0C6E0134083609360450F3
:10028800085E0550D8A0053C095ED8B007D00450D8
:1002980008260550D8B0053C0926D8900036013606
:0602A8000C2EEAD7120043
:1002AE00220E0C6E086A096A0A6A0B6A0C06D8B42A
:1002BE001FD0D8900B320A32093208320332023282
:1002CE0001320032D8A0F2D70C06D8B409D00450AF
:1002DE0008260550092206500A2207500B22EAD79B
:1002EE00045008260550092206500A2207500B22F8
:0202FE001200EC
:100300000B6A0A6A096A086A0E6A033408360450DE
:10031000085E0550D8A0053C095E0650D8A0063CF2
:100320000A5E0750D8A0073C0B5EE86AD8A0010E11
:100330000E5E0336070E0C6E0334083609360A3695
:100340000B360E36045003A012D0085E0550D8A01C
:10035000053C095E0650D8A0063C0A5E0750D8A0AE
:10036000073C0B5EE86AD8A0010E0E5E11D008268D
:100370000550D8B0053C09260650D8B0063C0A26E0
:100380000750D8B0073C0B26E86AD8B0010E0E26FD
:1003900003360C2ED1D70234083609360A360B360E
:1003A0000E36045003A012D0085E0550D8A0053CBC
:1003B000095E0650D8A0063C0A5E0750D8A0073C4C
:1003C0000B5EE86AD8A0010E0E5E11D0082605501B
:1003D000D8B0053C09260650D8B0063C0A2607507E
:1003E000D8B0073C0B26E86AD8B0010E0E260236BC
:1003F000070E0C6E0234083609360A360B360E36F6
:10040000045002A012D0085E0550D8A0053C095E39
:100410000650D8A0063C0A5E0750D8A0073C0B5EE9
:10042000E86AD8A0010E0E5E11D008260550D8B09B
:10043000053C09260650D8B0063C0A260750D8B01D
:10044000073C0B26E86AD8B0010E0E2602360C2EA9
:10045000D1D70134083609360A360B360E36045029
:1004600002A012D0085E0550D8A0053C095E0650D7
:10047000D8A0063C0A5E0750D8A0073C0B5EE86A8D
:10048000D8A0010E0E5E11D008260550D8B0053C4C
:1004900009260650D8B0063C0A260750D8B0073CBB
:1004A0000B26E86AD8B0010E0E260136070E0C6E38
:1004B0000134083609360A360B360E36045001A0D0
:1004C00012D0085E0550D8A0053C095E0650D8A0A1
:1004D000063C0A5E0750D8A0073C0B5EE86AD8A02D
:1004E000010E0E5E11D008260550D8B0053C092635
:1004F0000650D8B0063C0A260750D8B0073C0B2659
:10050000E86AD8B0010E0E2601360C2ED1D7003481
:10051000083609360A360B360E36045001A012D0C2
:10052000085E0550D8A0053C095E0650D8A0063CE0
:100530000A5E0750D8A0073C0B5EE86AD8A0010EFF
:100540000E5E11D008260550D8B0053C092606508D
:10055000D8B0063C0A260750D8B0073C0B26E86AFC
:10056000D8B0010E0E260036070E0C6E0034083689
:1005700009360A360B360E36045000A012D0085E3B
:100580000550D8A0053C095E0650D8A0063C0A5E7E
:100590000750D8A0073C0B5EE86AD8A0010E0E5E9B
:1005A00011D008260550D8B0053C09260650D8B011
:1005B000063C0A260750D8B0073C0B26E86AD8B09C
:1005C000010E0E2600360C2ED1D700B00ED00450EE
:1005D00008260550D8B0053C09260650D8B0063C80
:0C05E0000A260750D8B0073C0B2612007A
:1005EC0010D0800E0001AC6F1AD0C00EAC6F17D0BB
:1005FC00940EAC6F14D0D40EAC6F11D0800EAC6FC7
:10060C000ED00001AC51010AECE0AC51020AEDE055
:10061C00AC51030AEDE0AC51040AEDE0EFD7AD05A7
:10062C00006EAC51002600C0ACF000C0B2F0BBDDD7
:10063C00A091B06BB051AE25E96E000EAF21EA6E01
:10064C00EE520BE0B051AE25E96E000EAF21EA6E12
:0E065C00EECFB1F0EDDDB02BEDD7A081120096
:10066A0010D0800E0001AC6F1AD0C00EAC6F17D03C
:10067A00940EAC6F14D0D40EAC6F11D0800EAC6F48
:10068A000ED00001AC51010AECE0AC51020AEDE0D7
:10069A00AC51030AEDE0AC51040AEDE0EFD7AD0529
:1006AA00006EAC51002600C0ACF0A08100C0B2F0D0
:0E06BA007BDDA091AEC0B2F077DDA081120012
:1006C8000900F5CFE6FF0006FBE10106F9E112009B
:1006D800939693949398939A939C939E81968194DE
:1006E800819E819C819A819852DD51DD50DD818AFD
:1006F8008188818657DD81964ADD818653DD819622
:1007080046DD81864FDD819642DD819881864ADD0E
:1007180081963DDD818646DD8196819A818E81862E
:1007280041DD819634DD819E818881863BDD81961D
:100738008198818637DD81962ADD818633DD819631
:10074800818881862FDD819622DD819881862ADD48
:100758008196818E818C818A8188818623DD81962C
:0807680016DD0001A081120062
:100770004A0E00019A6F020E9B6FAC0E9C6F000E2A
:100780009D6FC26A671D006E0050C116070EC01231
:06079000C08EC2801200C1
:10079600010E0001B26F0ADD010EAC6F010EAD6FE6
:1007A600410EAE6F000EAF6F1EDF4050000A0AE129
:1007B600020EAC6F010EAD6F2F0EAE6F000EAF6F57
:1007C60012DF09D0020EAC6F010EAD6F560EAE6F82
:0807D600000EAF6F08DF1200F6
:1007DE000A0E046E000E056EA5C000F0A6C001F054
:1007EE0044DD00C0AAF001C0ABF00A0E046E000E8C
:1007FE00056EAAC000F0ABC001F037DD300E00244C
:10080E000001A76F0A0E046E000E056EAAC000F05E
:10081E00ABC001F02ADD08C000F009C001F0300EB7
:10082E000024A86F0A0E046E000E056EA5C000F01F
:10083E00A6C001F01ADD08C000F009C001F0300EAC
:10084E000024A96F010EAC6F010EAD6F260EAE6FB8
:10085E00000EAF6FC4DE010EAC6F070EAD6FA7C0FA
:10086E00AEF0FCDE010EAC6F080EAD6FA8C0AEF0A0
:10087E00F5DE010EAC6F090EAD6F2E0EAE6FEEDE15
:10088E00010EAC6F0A0EAD6FA9C0AEF0E7DE010E21
:10089E00AC6F0B0EAD6FDF0EAE6FE0DE010EAC6F08
:0C08AE000C0EAD6F430EAE6FD9DE1200D1
:1008BA000001AC6BC5DC00C054F001C055F0000E5D
:1008CA00026E036EE80E046E030E056E000E066ECF
:1008DA00076EE8DCFF0E046E030E056E000E066E50
:0E08EA00076E09DD00C052F001C053F012008D
:1008F8000A0E046E000E056EA5C000F0A6C001F039
:10090800B7DC300E00240001A76F0A0E046E000E3B
:10091800056EA5C000F0A6C001F0AADC08C000F072
:1009280009C001F0300E0024A86F020EAC6F010E52
:10093800AD6F6E0EAE6F000EAF6F54DE020EAC6F71
:10094800080EAD6FA7C0AEF08CDE020EAC6F090EBC
:10095800AD6FA8C0AEF085DE020EAC6F0A0EAD6FAB
:0C096800680EAE6F000EAF6F3DDE120097
:10097400A6EC05F0070EB46EB56AACDE010EB26FDC
:1009840016DC0C0EB26F13DC010EAC6F010EAD6FF2
:100994001A0EAE6F000EAF6F27DE340EC16EAA0EB4
:1009A400C06EE4DE928092869380938295908C90C0
:1009B400F18CF18AF288F086F28EF28C1950010AD9
:1009C40002E1196AE6DE2E50010A28E12E6A010EC0
:1009D400B26FD9EC00F06FDF52C0A5F053C0A6F09F
:1009E400FCDE2D50010A06E198C0A5F099C0A6F0DE
:1009F40081DF05D0A1C0A5F0A2C0A6F07BDF5350D3
:100A0400010802E15250F40803E2010EA36F01D081
:100A1400A36BA3B102D08C9001D08C806D51010ADC
:100A240027E16D6B48DF52C0A5F053C0A6F0D5DEB8
:100A34002D50010A06E198C0A5F099C0A6F05ADF2E
:100A440008D02D50020A05E1A1C0A5F0A2C0A6F06D
:100A540051DF5350010802E15250F40803E2010E41
:100A6400A46F01D0A46BA4B102D08C9001D08C806F
:100A74006C51010A27E16C6B8C90010EB26FD9ECBA
:100A840000F0010EAC6F010EAD6F870EAE6F000E5D
:100A9400AF6FAADD020EAC6F010EAD6F760EAE6FB6
:100AA400000EAF6FA1DD1A0E0B6E5E0E0C6E6E0E95
:100AB4000D6E0D2EFED70C2EFCD70B2EFAD7000090
:080AC400010E196E7BD7FFD76C
:100B4C0010EE19F07F0E006E010E016ECC0EF66EDB
:0E0B5C000A0EF76E000EF86E64EC03F0120045
:010ACC000128
:0C0ACD0046554E43494F4E414E444F00E9
:070AD90054656D703A200026
:010AE0000015
:010AE1000014
:100AE2003E204C6F6E676F202836307329202020FD
:010AF2000003
:010AF3000002
:100AF40053656C65632E54656D706F2028423129EF
:010B040000F0
:020B05000000EE
:020B07000000EC
:100B09003E20437572746F202831307329202020CC
:010B190000DB
:010B1A0030AA
:040B1B007320200023
:010B1F0000D5
:010B200000D4
:080B210054656D706F3A20006D
:100B290020202046696E616C697A61646120202009
:010B390000BB
:100B3A00202020204D65646963616F2020202020D9
:010B4A0000AA
:020000040030CA
:0E000000000C1F1EFF8381FF0FC00FE00F409A
:00000001FF
